:1000000094C1B8C1B7C1B6C1B5C1D1C4B3C1B2C141
:10001000B1C1B0C1AFC1AEC1ADC1ACC1ABC100E0F7
:1000200010080810E000000F102020100F00001032
:1000300010F8000000000020203F20200000007089
:100040000808088870000030282422213000003081
:100050000888884830000018202020110E00000079
:10006000C02010F8000000070424243F240000F8FA
:100070000888880808000019212020110E0000E0DF
:10008000108888180000000F112020110E00003881
:100090000808C83808000000003F00000000007099
:1000A000880808887000001C222121221C0000E022
:1000B00010080810E0000000312222110F0000009B
:1000C000000000000000002F0000000007000700F3
:1000D00000147F147F1400242A7F2A12006264080F
:1000E000132300364955225000000503000000008C
:1000F0001C224100000041221C000014083E08148C
:100100000008083E0808000000A060000008080879
:100110000808000060600000002010080402003E93
:100120005149453E0000427F40000042615149462E
:10013000002141454B31001814127F10002745451E
:100140004539003C4A494930000171090503003630
:100150004949493600064949291E00003636000043
:100160000000563600000008142241000014141448
:100170001414000041221408000201510906003243
:100180004959513E007C1211127C007F4949493681
:10019000003E41414122007F4141221C007F4949EC
:1001A0004941007F09090901003E4149497A007F20
:1001B0000808087F0000417F4100002040413F01C6
:1001C000007F08142241007F40404040007F020C25
:1001D000027F007F0408107F003E4141413E007FC6
:1001E00009090906003E4151215E007F091929468F
:1001F0000046494949310001017F0101003F40406B
:10020000403F001F2040201F003F4038403F006318
:10021000140814630007087008070061514945433A
:1002200000007F414100000204081020000041410D
:100230007F000004020102040040404040400000F2
:1002400001020400002054545478007F484444388C
:1002500000384444442000384444487F0038545413
:10026000541800087E0901020018A4A4A47C007F91
:10027000080404780000447D4000004080847D0034
:10028000007F102844000000417F4000007C0418DB
:100290000478007C0804047800384444443800FCA6
:1002A000242424180018242418FC007C08040408C2
:1002B00000485454542000043F444020003C404037
:1002C000207C001C2040201C003C4030403C00446E
:1002D00028102844001CA0A0A07C004464544C4476
:1002E0000008364141000000007F0000000041414D
:1002F0003608000804081008C8A1A81FDA028D14E7
:100300006D696E006D41006D56006D5768006D415E
:10031000680020504155534500434841524745002D
:100320004C494D49543A00008F0811241FBECFE5B7
:10033000D2E0DEBFCDBF20E0A8EBB0E001C01D924F
:10034000A43FB207E1F710E0A0E6B0E0E6E4F2E196
:1003500002C005900D92A83BB107D9F711E0C5E99D
:10036000D1E003C02197FE0166D7C439D107D1F788
:1003700068D367C745CEC09AC29ABA9AB89A8FEF27
:100380008FB98AE28DB980EF8EB908953FB7F8949E
:100390008091E8009091E900A091EA00B091EB0013
:1003A00022B708B601FE05C02F3F19F00196A11D26
:1003B000B11D3FBFBA2FA92F982F8827BC01CD01AF
:1003C000620F711D811D911D43E0660F771F881F0D
:1003D000991F4A95D1F70895CF92DF92EF92FF923D
:1003E000CF93DF936B017C01D1DFEB01CFDF6C1B7F
:1003F0007D0B683E7340A0F0C114D104E104F10408
:1004000039F4DF91CF91FF90EF90DF90CF90089576
:1004100081E0C81AD108E108F108C851DC4FE6CFE5
:10042000C114D104E104F10409F7EBCFCF92DF92BC
:10043000EF92FF920F931F93CF93DF936C01EB0129
:100440007B01E40EF51E10E000E0CE15DF0561F043
:100450006991D601ED91FC910190F081E02DC601EA
:100460000995080F191FF1CFC801DF91CF911F9196
:100470000F91FF90EF90DF90CF900895E091BA0038
:10048000F091BB000994E091B800F091B900099493
:10049000E091BC00F091BD00099580E4F4CFE091BB
:1004A000BC00F091BD00099580E0EDCF1F93CF9384
:1004B000DF93C82F162FD62FD77080916900D82BC5
:1004C000EEDF8D2FE0DF8C2F82958F708061DBDF78
:1004D0008C2F8F70D8DFD2DFC093ED001093EC002B
:1004E000DF91CF911F9108950F931F93CF93DF93C7
:1004F000C0E010E86C2F80E0D9DF8091ED00012F83
:10050000081B81F01093ED00C3DFD0E080E0BBDF7B
:10051000811104C0B3DFBCDF80E0B5DFDF5F0D1306
:10052000F5CFACDFCF5FC43029F760E080E0DF912A
:10053000CF911F910F91BACF8091EC00860F24E0EC
:1005400030E0261B31098217130609F034F480933A
:10055000EC006091EC0080E0A9CF84E0861BF7CF2F
:10056000AF92BF92CF92DF92EF92FF920F931F93C1
:10057000CF93DF93E091C000F091C100309741F03C
:100580006D3031F0D62FC3816A3079F46C2FD4DF0F
:1005900081E090E0DF91CF911F910F91FF90EF905C
:1005A000DF90CF90BF90AF900895A2804091ED0072
:1005B000EA2CF12C20E830E02E193F0942171306EF
:1005C00019F014F06C2FB8DFE091C000F091C10079
:1005D00024818C2F90E0B701E2D5BC014D2F421B46
:1005E000550BCA01DCD58C01BC2E52DFC801282F67
:1005F000201B2A15C0F46C015FEFC51AD50AE091E3
:10060000C000F091C1000190F081E02DE80FF91FCA
:10061000D4918D2F38DF811104C030DF39DF8D2F69
:1006200032DFC601E4CF0E0D1F1D28DF8091ED00E3
:10063000C13039F48A0D8093ED00BA94B110D5CF52
:10064000A7CF6091EC006F5F91E09B1510F42EDF57
:10065000F4CF6C1B8A0DFBCF0F931F93CF93DF93C7
:100660008C01D0E0C0E0F801EC0FFD1F649166231F
:1006700039F08EEE90E074DF892B11F02196F3CFE4
:10068000CE01DF91CF911F910F9108958EB98BE22A
:1006900095E09A95F1F700008DB9B29BFECF92E0FC
:1006A0009A95F1F700C08DB9769BF2CF85E08A95D7
:1006B000F1F700008FB19FEF9FB9B89A0895C298E3
:1006C0008FB980EFE3DFB8988EEFE0DF809581701F
:1006D0000895F5CFCF938091F2009091F3009C01A3
:1006E0002F5F3F4F2230310528F001979093F300A0
:1006F0008093F200B89880EFC9DFC82F8091F20094
:100700009091F300892B39F48FEF8FB98EEFBEDF14
:100710008C2FCF9108951FB8F9CF6115710531F075
:100720007093F3006093F20061E070E0C29AB29BB4
:10073000FECF92E09A95F1F700C0C09892E09A95AA
:10074000F1F700C0C298C09A779B0CC0C298880F7E
:10075000862B8FB980EF9ADFB8988EEF97DF809560
:100760008170089580E0089570E060E08CE3D5CF5B
:10077000C098C29AB29BFECF82E08A95F1F700C082
:10078000C09A85E08A95F1F700000895F1DF80E0D6
:100790000895F1DDE9DF811106C06AE070E080E0D4
:1007A00090E01ADEF7CFF2CFCF93DF93C82F70E03F
:1007B00060E080E4B2DF8C2F82DF62E070E080E4F2
:1007C000ACDF88DFC82F86DFDC2FC82FD1DFCE015A
:1007D000DF91CF9108951F93CF93DF93182FEB01F3
:1007E00070E060E080E499DF812F69DF8D2F67DFA3
:1007F0008C2F65DFDF91CF911F91BACF8F929F929F
:10080000AF92BF92EF92FF920F931F93CF93DF931C
:10081000CDB7DEB7A1970FB6F894DEBF0FBECDBF40
:10082000162F042F19A2423008F40AE07E0121E2BB
:10083000E20EF11C802E912CB12CA12C612FA50170
:100840009401D7D4802F622FA1D4181B1A303CF505
:10085000105DF70112937F01122F732FCA01232B12
:10086000242B252B59F701900020E9F73197AF0190
:100870004E195F09B7018EEE90E0D8DDA1960FB654
:10088000F894DEBF0FBECDBFDF91CF911F910F91C6
:10089000FF90EF90BF90AF909F908F900895195C5C
:1008A000D8CFCF92DF92EF92FF92CF93C82F6B01F8
:1008B000F12CE12C61E070E080E090E0C114D10403
:1008C000E104F10411F0C701B601603127E27207BB
:1008D0008105910538F4C85F2AE030E040E050E03F
:1008E0006FD4F3CF62E08C2FE1DD4AE0C701B6019F
:1008F000CF91FF90EF90DF90CF9080CF31C4FF92E7
:100900000F931F93CF93DF93EC01F62E088119818B
:10091000C80126D4F81619F06F2DC80129D4CE01CC
:10092000DF91CF911F910F91FF900895EF92FF9269
:100930000F931F93CF93DF9300D0CDB7DEB781E63F
:10094000E82E80E0F82E02E010E0F7016181F2E08D
:10095000EF0EF11C1A830983CE010196D0DFF70157
:1009600032976081C80101969A838983CE010196EE
:10097000C6DF0E5F1F4F0A30110539F76091C900BD
:100980001A830983CE010196BADF6091C2008BE021
:1009900090E09A838983CE010196B1DF0F900F908A
:1009A000DF91CF911F910F91FF90EF9008951F92CB
:1009B0000F920FB60F9211242F933F938F939F9313
:1009C000AF93BF938091E4009091E500A091E60081
:1009D000B091E7003091E30026E0230F2D3768F156
:1009E00029E8230F0396A11DB11D2093E3008093F6
:1009F000E4009093E500A093E600B093E7008091B7
:100A0000E8009091E900A091EA00B091EB00019616
:100A1000A11DB11D8093E8009093E900A093EA0026
:100A2000B093EB00BF91AF919F918F913F912F9128
:100A30000F900FBE0F901F9018950296A11DB11D2B
:100A4000D4CFCF93DF93CDB7DEB72B970FB6F89403
:100A5000DEBF0FBECDBF81B781BF78948AB58260FB
:100A60008ABD8AB581608ABD83B7887F836083BF72
:100A7000789489B7826089BF80B7807F80BF80B754
:100A8000806880BF80B7806480BF8CB580648CBD77
:100A90008FEF8DBD80B7876080BF86B1887786680D
:100AA00086B9379A80E187BB18BA90E080E026DFEC
:100AB000182F81E090E022DF912F8C36974A09F0C1
:100AC000CEC1F1E6CF2EF0E0DF2E03E010E0C8014A
:100AD000019714DFF82EC80111DF9F2DD6018D93E9
:100AE0009D936D010E5F1F4F0B30110581F78AE05A
:100AF00090E004DF8093C9008BE090E0FFDE8093FC
:100B0000C20039DC67E676E080E065DE60E074E133
:100B100085E061DEE091BE00F091BF000995BFDC89
:100B200008EF12E0E0E0CE2EE3E0DE2EF801F490D4
:100B30008F2DA9DC811104C0A1DCB1DC8F2DA3DCD9
:100B40000F5F1F4FC016D10689F798DCCDDCA7DCFC
:100B50008FEA99DC93DC8091690094E08927809387
:100B600069002FB7F8948091E4009091E500A0917E
:100B7000E600B091E7002FBF8093D9009093DA0090
:100B8000A093DB00B093DC0068EEC62E63E0D62EA7
:100B9000E12CF12C70E8272E70E0372E82E004DE85
:100BA000969587958C7F9093E2008093E10084E096
:100BB000FBDD97FD64C19093E0008093DF0080919E
:100BC000DF009091E000059720F41092E000109271
:100BD000DF006091E1007091E20090E080E0209100
:100BE000DF003091E00050E040E0EAD2A70196013A
:100BF00000D33093DE002093DD008FB7F89480900F
:100C0000E4009090E500A090E600B090E7008FBF70
:100C10008091D9009091DA00A091DB00B091DC00C6
:100C200024013501481A590A6A0A7B0A8092D900C0
:100C30009092DA00A092DB00B092DC000091DF001D
:100C40001091E000B80190E080E0A3019201B8D2D9
:100C500020E13EE040E050E0CCD28091D500909180
:100C6000D600A091D700B091D800820F931FA41F87
:100C7000B51F8B839C83AD83BE838093D5009093F7
:100C8000D600A093D700B093D8006091DD0070919A
:100C9000DE0090E080E0A301920192D220E13EE0EC
:100CA00040E050E0A6D28091D1009091D200A09176
:100CB000D300B091D400820F931FA41FB51F8F8360
:100CC0009887A987BA878093D1009093D200A09388
:100CD000D300B093D4009091D0009B879923A1F0CA
:100CE0008091CC009091CD00A091CE00B091CF002A
:100CF000840D951DA61DB71D8093CC009093CD004B
:100D0000A093CE00B093CF006091CC007091CD0045
:100D10008091CE009091CF0020E63AEE40E050E086
:100D200068D23093CB002093CA00AB85AA2391F000
:100D30008091C900813009F4BDC008F4A5C082309B
:100D400009F4C4C0833009F4EEC08091D000811151
:100D500001C018BAB3E0B7B987B187B9369A3699E6
:100D6000FECF84B125B1322F282F80E091E0980F7B
:100D7000E82FF0E0EE0FFF1FE256FF4F4081518158
:100D80002417350708F4D8C08093C400823009F4D2
:100D900026C108F0D3C0813009F4FFC08091C4009F
:100DA0008093C300A1DB3092C1002092C00060E0BC
:100DB00080E07CDB80E293E04FDCE091C900F0E072
:100DC000EE0FFF1FEF59FF4F6081718190E080E0CF
:100DD0004AE014DDE091C900F0E0EE0FFF1FE85893
:100DE000FF4F60817181FB0101900020E9F731978D
:100DF000AF01461B570B8EEE90E018DB60E08CE5F0
:100E000055DB8091D000882309F42DC189E193E05E
:100E100023DC82E790E09093C1008093C000809132
:100E2000C200813009F44FC108F420C1823009F4B6
:100E300066C11091600090E21927109360002FDBCB
:100E4000812F21DB1BDB8091690094E0892780934F
:100E5000690064E670E080E090E0BEDA9FCE1A821E
:100E6000198267EACE0101964ADD81E090E09A831B
:100E700089836CE6CE01019642DD58DD42CE1092A8
:100E8000E0001092DF009BCE6B817C818D819E8182
:100E9000A7019601AED18091610090916200B0E00F
:100EA000A0E0281739074A075B0708F44ECF1092D5
:100EB000D0004BCF6F81788589859A85A7019601EF
:100EC00098D18091630090916400E9CF8091650092
:100ED000909166000817190770F48091C5009091F1
:100EE000C600A091C700B091C80088159905AA0551
:100EF000BB05E8F22ACF2FB7F8948091E4009091D7
:100F0000E500A091E600B091E7002FBF88579C4E06
:100F1000AF4FBF4F8093C5009093C600A093C7000A
:100F2000B093C80012CF8091670090916800281795
:100F3000390708F0BCCF09CF892F18CF833009F4C7
:100F40006FC0843009F02ACF8091C300843009F447
:100F500025CF8091D000B1E08B278093D0008823EB
:100F600009F47FC0E0E1E8BBE1DC2FB7F8948091A1
:100F7000E4009091E500A091E600B091E7002FBF5A
:100F800088579C4EAF4FBF4F8093C5009093C600CB
:100F9000A093C700B093C80001CF8091C3008130F7
:100FA00009F4FCCE8091D000882399F08091C20092
:100FB0008F5F8093C2008091C900843010F010923E
:100FC000C9008091C200833008F4E8CE1092C200BC
:100FD000E5CE8091C9008F5F8093C900ECCF8091EE
:100FE000D0008111DBCE8091C90090E0880F991F5D
:100FF000FC01EF59FF4F20813181DC01AA56BF4F20
:101000004D915C912417350708F0C8CE82579F4F49
:10101000DC018D919C91820F931F91838083BECEC2
:101020008091D0008111BACE8091C90090E0880FE4
:10103000991FFC01EF59FF4F20813181DC01AA5734
:10104000BF4F4D915C914217530708F0A7CE8257CE
:101050009F4FDC018D919C91281B390B318320839C
:101060009DCE18BA81CF82E193E0D2CE6091D500B7
:101070007091D6008091D7009091D800A701960179
:10108000B8D0B90180E00DDC6091D1007091D20040
:101090008091D3009091D400A7019601AAD0B90104
:1010A00086E4FFDB3092C1002092C00063E088E25A
:1010B000FDD98EE093E0D0DA63E08EE6F7D98AE0DE
:1010C00093E0CADAB6CE6091E1007091E20080E070
:1010D000E8DB6091DF007091E00086E4E2DB3092B3
:1010E000C1002092C00063E088E2E0D987E093E08D
:1010F000B3DA63E08EE6DAD984E093E0E2CF609180
:10110000CA007091CB008EE1CCDB3092C1002092FE
:10111000C00063E086E4CAD980E093E0D2CFEEEE6F
:10112000F0E0138212828EE690E09183808389EC56
:1011300093E09093BF008093BE0084EB93E0909384
:10114000BD008093BC0089E693E09093B900809342
:10115000B80086EC93E09093BB008093BA000895AA
:10116000E199FECF9FBB8EBBE09A99278DB308957E
:10117000262FE199FECF1CBA9FBB8EBB2DBB0FB6AD
:10118000F894E29AE19A0FBE01960895002480FD3A
:10119000060E660F11F08695D1F7802D0895002474
:1011A000552704C0080E591F880F991F009729F072
:1011B00076956795B8F37105B9F7802D952F089549
:1011C000EE27FF27AA27BB2708C0A20FB31FE41FE3
:1011D000F51F220F331F441F551F9695879577954E
:1011E000679598F37040A9F7009799F7BD01CF0173
:1011F0000895A1E21A2EAA1BBB1BFD010DC0AA1F58
:10120000BB1FEE1FFF1FA217B307E407F50720F06F
:10121000A21BB30BE40BF50B661F771F881F991FEA
:101220001A9469F760957095809590959B01AC0133
:10123000BD01CF010895EE0FFF1F0590F491E02D41
:061240000994F894FFCFB1
:1012460040B80B983AC800B400B000000000B002E5
:1012560016021E0008023039A800AC00B000B30028
:10126600BE000601207EF401E80364000A00640063
:10127600F40164000A00102750C3B80B580280031B
:10128600D6025502000100006D4168006D576800E6
:081296006D41006D696E00005E
:00000001FF
