:10000000F4C00EC10DC10CC10BC10AC109C108C1A8
:1000100007C106C10FC204C103C102C101C17C1FD7
:1000200002200220022002207C1F000000000000AD
:10003000000000007C1F001F82208220822082207E
:100040007C00000082208220822082207C1F7C0095
:1000500080008000800080007C1F7C008220822045
:1000600082208220001F7C1F82208220822082200A
:10007000001F7C0002000200020002007C1F7C1FA7
:1000800082208220822082207C1F7C00822082208D
:10009000822082207C1F0000F03F8C0082008C00B8
:1000A000F03F0000FE07001800200018FE070000C7
:1000B000FE1F0020001F0020FE1F0000FE3F000169
:1000C00080008000003F0000803F8000803F800073
:1000D000003F000000003006300600000000000075
:1000E000000000000000000000003E5149453E00B5
:1000F000427F400042615149462141454B3118142D
:10010000127F1027454545393C4A4949300171095C
:1001100005033649494936064949291E7C12111200
:100120007C1F2040201F3F4038403F7F0804047858
:100130007C04180478003636000000000000003E01
:10014000414141227F494949413E4149497A7F081D
:1001500008087F00417F41007F404040407F020C03
:10016000027F7F090909067F09192946464949493D
:100170003101017F01013F4040403F00447D40008C
:100180007C080404781027E80364000A000100A832
:100190001F2001DA028D14AFA1C88003D6025502D8
:1001A000000100000E0AFF0E0B1010FF10180A1CB1
:1001B0001A12FF11140A191312FF0E0A0DFF0E0C6A
:1001C0000DFF0E0A10FF0E1D1EFF161517151B0F33
:1001D000FFF401E80364000A006400F40164000A0B
:1001E00000102750C3B80B4E020011241FBECFE5EC
:1001F000D2E0DEBFCDBF10E0A0E6B0E0E8EFFAE06D
:1002000002C005900D92A836B107D9F720E0A8E604
:10021000B0E001C01D92AF36B207E1F730D16AC439
:10022000EFCE282FB89898E080E0880FBA98B09960
:100230008160BA9A9150C9F72111B89ABA98BA9ABE
:100240000895B89ABA98B898089598E087FF02C0C0
:10025000B89801C0B89ABA98BA9A880F9150B1F775
:10026000B898BA98BA9A08951F93CF93DF93E82F5E
:10027000809168009E2F990F990F8823E9F0EE0F67
:10028000EE0FEE0FCE2FC90F80E0DFDF80E0DDDF65
:10029000DCE0DC0F11E01C0FEC2FF0E0E25EFF4F22
:1002A0008491D3DFC12FD113F5CF80E0CEDF80E082
:1002B000DF91CF911F91C9CFCE2FC90F80E0C5DF4D
:1002C000D5E0DC0F11E01C0FEC2FF0E0E651FF4F02
:1002D0008491BBDFC12F1D13F5CFDF91CF911F910B
:1002E0000895B89ABA9AB1CFCF93DF93C82F80E818
:1002F000F8DF8C2FAADFB898BA9881E8F2DF81E0A6
:1003000090DFC82F80E08DDFD0E0DC2FCC27C82B1A
:1003100098DFCE01DF91CF910895CF93C82F88E762
:10032000E0DF80E492DF80E0CA3018F08F5FCA50CF
:10033000FBCF9ADF8C2F98DFCF9183CFEF92FF9284
:100340000F931F93CF93DF937C0188E7CADF80E48C
:100350007CDF05E811E0C0E0D0E0F80125913491A0
:1003600080E0E216F30628F08F5FE21AF30AD1E08C
:10037000F8CFD11103C0C43009F080E175DFCF5F41
:100380000E5F1F4FC53049F7DF91CF911F910F913D
:10039000FF90EF9056CFCF93DF93EC0188E7A1DF7A
:1003A00080E453DFFE0184918F3F19F05DDF2196D9
:1003B000F9CFDF91CF9145CFCF93C82F88E791DF59
:1003C00080E443DF8C2F50DFCF913BCFCF93DF937F
:1003D000D82FC62F88E785DF80E037DF82E235DF60
:1003E0008C2F33DFC23010F083E001C08C2F2DDF63
:1003F0008D2F8F702ADF8D2F82958F70806125DF82
:100400008C2F806B22DF1DDFC0936800DF91CF91BE
:10041000089548E050E062E070E080E690E0F6D2B7
:1004200060916E008AE090E000D360916D008BE0F7
:1004300090E0FBC21F920F920FB60F9211248F9380
:100440009F93AF93BF938091690090916A00A091B0
:100450006B00B0916C000196A11DB11D80936900E5
:1004600090936A00A0936B00B0936C00BF91AF9122
:100470009F918F910F900FBE0F901F901895CF9363
:10048000DF93CDB7DEB76B970FB6F894DEBF0FBE24
:10049000CDBFBC9AA39A8CE789BD82E08ABD83BF99
:1004A00080E189BF83E886B983E087B980E819DFF6
:1004B00080E0CBDE87E0C9DE8FEFC7DEC2DE80E8FA
:1004C00010DF85E0C2DE84E1C0DE80E0BEDEB9DEA2
:1004D00088E707DF80E0B9DE2FE831E03A8329833F
:1004E0000AE911E0E981FA818491AFDE29813A813C
:1004F0002F5F3F4F3A8329830217130799F7A1DE35
:1005000060E080E063DF88E7ECDE80E49EDE30E8D8
:10051000398380E09ADE8981815089838111F9CF06
:1005200090DE61E080E052DF88E7DBDE80E48DDE94
:1005300090E8998382E089DEA981A150A983A11165
:10054000F9CF7FDE62E080E041DF88E7CADE80E449
:100550007CDE198280E079DEB981B150B983B111B6
:10056000F9CF6FDE80E090E04CD28D36974A91F45F
:1005700048E050E062E070E080E690E02AD28AE055
:1005800090E037D280936E008BE090E032D280937F
:100590006D0006C06DE677EA80E090E058D239DF62
:1005A000F8948090690090906A00A0906B00B090E1
:1005B0006C0078941B8E10E01F82188619861A86AC
:1005C0001B821C821D821E821B861C861D861E8627
:1005D00078EEC72E73E0D72EE12CF12C82E084DE7A
:1005E000969587959C012C7F388F2F8B84E07CDE3D
:1005F0001C0105978B3F9F4710F0212C312CF8945C
:100600004090690050906A0060906B0070906C00A0
:100610007894D301C20188199909AA09BB094C0130
:100620005D019B8D992361F08B859C85AD85BE8591
:10063000880D991DAA1DBB1D8B879C87AD87BE8722
:100640006B857C858D859E85A701960131D23A8385
:100650002983203A3C4820F0AFE9BCE8BA83A9835B
:1006600089819A816CE370E00FD27A8F698FC10122
:10067000A0E0B0E08B8B9C8BAD8BBE8B9C01AD0161
:10068000C501B401E8D120E13EE040E050E010D2E5
:100690008B819C81AD81BE81820F931FA41FB51FEA
:1006A0008B839C83AD83BE83EF89F88DCF01A0E05F
:1006B000B0E02B893C894D895E89BC01CD01CBD14D
:1006C000A7019601F5D1CA01B90188279927A5018B
:1006D0009401C1D120E13EE040E050E0E9D18F81BA
:1006E0009885A985BA85820F931FA41FB51F8F8394
:1006F0009887A987BA879B8D992309F453C0809165
:100700006E00813091F028F0823019F18330F1F1E0
:1007100047C06B817C818D819E81A7019601C8D1E4
:1007200080916000909161000BC06F817885898510
:100730009A85A7019601BCD18091620090916300D7
:10074000A0E0B0E0281739074A075B0708F03EC170
:1007500027C080916400909165002816390658F4EE
:100760008F859889A989BA8984159505A605B70545
:1007700008F42CC115C0D301C20188579C4EAF4F5D
:10078000BF4F8F87988BA98BBA8B0AC08091660068
:1007900090916700A98DBA8DA817B90708F016C106
:1007A000F1E0FB8F369A3699FECF84B195B11B8A62
:1007B000BB89EB2FF0E0EE0FFF1FE656FE4F2591B1
:1007C00034918217930718F4BF5FBB8BF1CFEB898D
:1007D000E23059F118F4E13049F082C0FB89F3307E
:1007E00009F442C0F43009F45FC07AC0113009F452
:1007F00077C02B8D222331F080916D008F5F809325
:100800006D0005C080916E008F5F80936E008091B7
:100810006E00843010F010926E0080916D00833075
:1008200008F45EC010926D005BC03B8D311153C067
:1008300080916E0090E0880F991FDC01A05ABF4F95
:100840002D913C911197FC01EF51FE4F4591549130
:100850002417350708F044C0FC01E752FE4F4591CC
:100860005491240F351F1DC08B8D811137C080918D
:100870006E0090E0880F991FDC01A05ABF4F2D91A8
:100880003C911197FC01EF52FE4F45915491421754
:10089000530730F5FC01E752FE4F45915491241B5C
:1008A000350B2D933C931CC01430D1F011E09B8D7F
:1008B0001927911102C0C49A01C0C498AADDD301BE
:1008C000C20188579C4EAF4FBF4F8F87988BA98B23
:1008D000BA8B1B8F05C091E09B8F02C0A1E0AB8F4C
:1008E00060E080E073DD8AEC91E055DD00916E0000
:1008F00010E0F801EE0FFF1FE05AFF4F8081918159
:100900001DDDC801880F991F880F991F86549E4FBF
:1009100042DD60E08CE55ADDBB8DBB2319F083EB33
:1009200091E002C08CEA91E036DD62E080E04EDDCD
:1009300010916D00112349F189819A8160E17EE077
:10094000A3D0862F39DD8FE037DD898D9A8D6CE35A
:1009500070E09AD0E2DC8FE02FDD89819A816CE330
:1009600070E092D0DADC80E127DD1130C9F012307E
:1009700019F56F81788589859A85A701960198D0A8
:10098000C901DCDC8EEB91E016C08F89988DD6DC36
:1009900087EA91E000DDC101D1DC84EA91E00BC07F
:1009A0006B817C818D819E81A701960181D0C901D7
:1009B000C5DC8AEB91E0EFDCE1E1FAE73197F1F792
:1009C00000C000001B895301420108CEC4981B8E51
:1009D000E9CEDC01CB01FC01E199FECF06C0FFBBF3
:1009E000EEBBE09A31960DB20D9241505040B8F7EF
:1009F0000895E199FECF9FBB8EBBE09A99278DB3F6
:100A00000895A8E1B0E042E050E0E5CFDC01A40F9A
:100A1000B51F4150504040F0CB01840F951F2E91DF
:100A200005D041505040D8F70895262FE199FECFC8
:100A30009FBB8EBBE09A01970DB2021639F01CBA2B
:100A40002DBB0FB6F894E29AE19A0FBE0895019675
:100A5000272FECDFEACFEE27FF27AA27BB2708C006
:100A6000A20FB31FE41FF51F220F331F441F551F92
:100A7000969587957795679598F37040A9F70097B5
:100A800099F7BD01CF010895AA1BBB1B51E107C017
:100A9000AA1FBB1FA617B70710F0A61BB70B881F0E
:100AA000991F5A95A9F780959095BC01CD0108959D
:100AB000A1E21A2EAA1BBB1BFD010DC0AA1FBB1F62
:100AC000EE1FFF1FA217B307E407F50720F0A21BD4
:100AD000B30BE40BF50B661F771F881F991F1A9441
:100AE00069F760957095809590959B01AC01BD016B
:080AF000CF010895F894FFCF37
:080AF800B80B983AC800B400E5
:00000001FF
